S01700004763634170706C69636174696F6E312E737265635B
S11300000C942A000C943F000C943F000C943F0085
S11300100C943F000C943F000C943F000C943F0060
S11300200C943F000C943F000C943F000C943F0050
S11300300C943F000C943F000C943F000C943F0040
S11300400C943F000C943F000C943F000C943F0030
S11300500C943F0011241FBECFE5D8E0DEBFCDBF16
S113006010E0A0E6B0E0EEE7F1E002C005900D92EA
S1130070A43BB107D9F70E94B6000C94BD000C94C0
S1130080000010BC83E389B986E880BD88E18AB9A1
S113009008955D9BFECF8CB908950F931F93CF9362
S11300A0DF938C01C0E0D0E007C0F801EC0FFD1F26
S11300B080810E9449002196F80101900020E9F70F
S11300C03197E01BF10BCE17DF0778F3DF91CF9167
S11300D01F910F9108955F9BFECF8CB1813321F462
S11300E09BB382E089278BBB8CB1823321F49BB311
S11300F084E089278BBB8CB1833321F49BB388E0E4
S113010089278BBB8CB1843321F49BB380E189278D
S11301108BBB8CB1853321F49BB380E289278BBBE5
S11301208CB1863321F49BB380E489278BBB8CB1DB
S1130130873319F48BB380588BBB8CB1883311F49B
S11301408BB38BBB8CB1893311F48BB38BBB8CB168
S1130150833609F41BBA8CB1833719F48FEF8BBB48
S1130160089580EA90E00E944D0008950E944100A5
S11101708FEF8ABB0E946B00FDCFF894FFCF87
S113017E4E616369736E696A2070727A796369730A
S113018E6B205B315D2000506F707261776E792049
S113019E70727A796369736B20004E6965706F7043
S11301AE7261776E792070727A796369736B20004D
S11301BE426C6164202D207A6C792070727A796396
S10701CE69736B00E2
S9030000FC
