S00E000074696D6572792E737265637C
S11300000C942A000C943C000C943C000C943C008E
S11300100C943C000C943C000C943C000C943C006C
S11300200C943C000C943C000C943C000C943E005A
S11300300C943C000C943C000C943C000C943C004C
S11300400C943C000C943C000C943C000C943C003C
S11300500C943C0011241FBECFE5D8E0DEBFCDBF19
S113006020E0A0E6B0E001C01D92A236B207E1F79D
S11300700E9461000C9471000C9400001F920F9276
S11300800FB60F9211248F939F93809160009091EB
S11300906100019690936100809360000A9741F497
S11300A09BB381E089278BBB1092610010926000A2
S11300B088E282BF9F918F910F900FBE0F901F9087
S11300C01895789489B7816089BF8FEF8ABB1BBA72
S11300D083B7846083BF83B7886083BF88E282BFAD
S10900E0FFCFF894FFCFEE
S9030000FC
